:020000040800F2
:1000000038070020CD01000847130008F912000846
:100010004513000875020008F119000800000000EF
:10002000000000000000000000000000251400088F
:100030007702000800000000691300086B14000834
:10004000E7010008E7010008E7010008E7010008F0
:10005000E7010008E7010008E7010008E7010008E0
:10006000E7010008E7010008E7010008E7010008D0
:10007000E7010008E7010008E7010008E7010008C0
:10008000E7010008E7010008E7010008E7010008B0
:10009000E7010008E7010008E7010008E7010008A0
:1000A000E7010008E7010008E7010008E701000890
:1000B000E7010008E7010008B9140008E70100089B
:1000C000E7010008E7010008E7010008E701000870
:1000D000E7010008B9190008E7010008E701000876
:1000E000E7010008E7010008E7010008E701000850
:1000F000E7010008E7010008E7010008E701000840
:10010000E7010008E7010008E7010008E70100082F
:10011000E7010008E7010008E7010008E70100081F
:10012000E7010008E7010008E7010008E70100080F
:1001300000F002F800F03AF80AA090E8000C8244BF
:100140008344AAF10107DA4501D100F02FF8AFF29C
:10015000090EBAE80F0013F0010F18BFFB1A43F0A5
:100160000103184798190000B8190000103A24BF7D
:1001700078C878C1FAD8520724BF30C830C144BF0C
:1001800004680C607047000000230024002500264E
:10019000103A28BF78C1FBD8520728BF30C148BFEA
:1001A0000B6070471FB51FBD10B510BD00F033F8D0
:1001B0001146FFF7F7FF01F04FFC00F051F803B4D0
:1001C000FFF7F2FF03BC01F014FC00000948804770
:1001D00009480047FEE7FEE7FEE7FEE7FEE7FEE729
:1001E000FEE7FEE7FEE7FEE704480549054A064B41
:1001F0007047000071140008310100083801002028
:10020000380700203803002038030020704770476B
:10021000704770477047754600F028F8AE460500F5
:100220006946534620F00700854618B020B5FFF711
:10023000DBFFBDE820404FF000064FF000074FF015
:1002400000084FF0000B21F00701AC46ACE8C009F4
:10025000ACE8C009ACE8C009ACE8C0098D467047FD
:100260000446AFF300802046FFF7A9FF004870471F
:10027000D8000020FEE7704731B500F005F90446CC
:1002800000F002F90099001B8842F9D338BD000044
:100290002DE9F84FDFF8BC91002309F1040A0AF1B7
:1002A000040B1C464FF00F080BF1040E01270A68DF
:1002B000A7403A40BA4272D1DFF89CC14D68A5EB25
:1002C0000C0665452BD00DDC032D34D005DC35B391
:1002D000012D19D0022D2FD11BE0112D16D0122D7A
:1002E0002AD119E0B6F5881F19D006DCB6F5803F93
:1002F00015D0B6F5801F1FD111E0B6F5001F0ED046
:10030000B6F5041F18D10AE0CB6815E0CB681B1DB9
:1003100012E0CB6808330FE0CB680C330CE08B683D
:100320002BB1012B4FF0080303D0476104E00423F5
:1003300002E0076100E00023FF2A01D8064601E041
:1003400000F104064FEA840501D9A5F120053768BC
:1003500008FA05FC27EA0C0703FA05F547EA050742
:1003600037604D68ED006ED53C4DAE6946F0010634
:10037000AE61AD6924F0030605F001050095384D26
:100380007719BE68A5072D0F08FA05FC26EA0C06AA
:10039000DFF8D0C0604503D14FF0000C25E052E0FB
:1003A000DFF8C4C0604502D14FF0010C1DE0DFF85A
:1003B000BCC0604502D14FF0020C16E0DFF8B0C0BF
:1003C000604502D14FF0030C0FE0DFF8A8C0604594
:1003D00002D14FF0040C08E0DFF89CC0604502D168
:1003E0004FF0050C01E04FF0060C0CFA05FC4CEA4E
:1003F000060CC7F808C04D68D9F80060ED034D46FB
:1004000001D5164300E096432E604D68DAF800608F
:10041000AD03554601D5164300E096432E604D6866
:10042000DBF80060ED025D4601D5164300E096431F
:100430002E604D68DEF80060AD02754601D51643AA
:1004400000E096432E60641C102CFFF42FAFBDE833
:10045000F88F00000004014000001110001002405D
:100460000000014000080140000C01400010014064
:100470000014014000180140001C01400AB1016154
:1004800070470904FBE7000001480068704700005E
:100490000400002002480168491C01607047000008
:1004A00004000020074810B5016841F01001016008
:1004B000052000F047F80F2000F006F800F015F8CE
:1004C000002010BD0020024010B5044600F00CF9D9
:1004D0004FF47A71B0FBF1F000F049FC00222146A4
:1004E000501E00F00FF8002010BD704700F01F02F2
:1004F000012191404009800000F1E020C0F8001186
:1005000070470000F0B40E4B1B68C3F30223C3F125
:100510000704042C00D904241D1D072D01D200233B
:1005200000E0DB1E012606FA04F56D1E0D409D401D
:100530009E40761E164045EA0601F0BC00F004BF5E
:100540000CED00E0064A00F0070110684FF6FF03CB
:10055000184040EA0120034908431060704700003A
:100560000CED00E00000FA052DE9F047DFF86881A6
:1005700004460E46D8F8000000F00700B0420CD246
:10058000D8F8001021F007013143C8F80010D8F85E
:10059000000000F00700B04273D120784F4F800771
:1005A00005D57868A16820F0F000084378602078CD
:1005B000C00755D06068012201280CD0022828D03D
:1005C000022393FAA3F1B1FA81F141F02001490924
:1005D00004D0396803E04FF40033F2E7796A93FA04
:1005E000A3F3B3FA83F303F01F039A40114248D0F8
:1005F000796821F0030101437960FFF745FF054663
:10060000606841F2883101280CD00228894615D053
:1006100022E04FF00073D4E7FFF736FF411B494556
:1006200001D916E089467868C0F381000128F3D12A
:1006300016E0FFF729FF411B49450AD87868C0F347
:1006400081000228F5D10BE0FFF71EFF411B494551
:1006500002D90320BDE8F087786810F00C0FF3D1C1
:10066000D8F80010404601F00701B1420BD90168EB
:1006700021F0070131430160006800F00700B0423B
:1006800001D00120E6E72078400705D57868E168C9
:1006900020F4E060084378602078000706D5786889
:1006A000216920F4605040EAC100786000F052F8FF
:1006B0007968F02292FAA2F201F0F001B2FA82F225
:1006C000D140074A515CC840064908600F20FFF737
:1006D000FBFE0020BEE700000020024000100240A8
:1006E000E41A00080000002001480068704700007C
:1006F0000000002008480949006849684FF4E0629A
:1007000092FAA2F201F4E061B2FA82F2D140044A14
:10071000515CC840704700000000002000100240FB
:10072000F41A000808480949006849684FF4605203
:1007300092FAA2F201F46051B2FA82F2D140044A74
:10074000515CC840704700000000002000100240CB
:10075000F41A000810B519A085B00FC88DE80F0075
:100760001AA01B4B0068049059681A4801F00C024B
:10077000042A1DD0082A1BD14FF4701494FAA4F453
:1007800001F47012B4FA84F4E240C9031DF80220A7
:1007900010D559684FF4003393FAA3F301F40031F4
:1007A000B3FA83F3D94004AB595CB0FBF1F050438A
:1007B00005B010BD08485043FAE7000002030405E5
:1007C000060708090A0B0C0D0E0F1010010200009D
:1007D0000010024000127A0000093D002DE9F84F98
:1007E00004460078FE4EC0074FF001057FD07068C8
:1007F0004FF40038C0F38100012807D07068C0F3BF
:10080000810002281BD17068C00318D598FAA8F09F
:10081000B0FA80F040F02000400901D0306800E0DC
:10082000706A98FAA8F1B1FA81F101F01F0105FA96
:1008300001F108425BD06068002879D057E0606819
:10084000B0F5803F0BD010B1B0F5A02F11D03068BB
:1008500020F480303060306820F4802002E030687E
:1008600040F480303060606818B3FFF70DFE074633
:1008700009E0306840F480203060F0E7FFF704FEC4
:10088000C01B642870D898FAA8F0B0FA80F040F045
:100890002000400901D0306800E0706A98FAA8F1A1
:1008A000B1FA81F101F01F0105FA01F10842E5D02A
:1008B0001DE0FFF7E9FD074604E0FFF7E5FDC01B7B
:1008C0006428DFD898FAA8F0B0FA80F040F0200051
:1008D000400901D0306800E0706A98FAA8F1B1FAD6
:1008E00081F101F01F0105FA01F10842E5D12078FC
:1008F000DFF8F08280074FF0000A4FF002075AD568
:1009000070684FF0F80B10F00C0F07D07068C0F350
:10091000810002281CD17068C00319D497FAA7F08F
:10092000B0FA80F040F02000400902D0306801E0C9
:100930008AE0706A97FAA7F1B1FA81F101F01F011C
:1009400005FA01F108422BD0206901287CD127E06B
:10095000206988B395FAA5F0B0FA80F048F82050E5
:10096000FFF792FD814606E04DE1FFF78DFDA0EB1C
:100970000900022886D897FAA7F0B0FA80F040F074
:100980002000400901D0306800E0706A97FAA7F1B2
:10099000B1FA81F101F01F0105FA01F10842E4D03A
:1009A00030689BFAABF220F0F8016069B2FA82F28B
:1009B00090400143316025E0FFE795FAA5F1B1FAD7
:1009C00081F148F821A0FFF75FFD814605E0FFF7C0
:1009D0005BFDA0EB09000228CCD897FAA7F0B0FA8B
:1009E00080F040F02000400901D0306800E0706ADB
:1009F00097FAA7F1B1FA81F101F01F0105FA01F1AF
:100A00000842E4D1207800076DD5A069B8B395FA03
:100A1000A5F0B0FA80F008EB8000C0F88054FFF732
:100A200033FD814605E0FFF72FFDA0EB090002280A
:100A3000A0D897FAA7F0B0FA80F040F06000B5EBCC
:100A4000501F02D130680CE063E197FAA7F0B0FACA
:100A500080F040F06000B7EB501F01D1306A00E039
:100A6000706A97FAA7F1B1FA81F101F01F0105FA56
:100A700001F21042D7D00120FFF7FEFB33E0FFE781
:100A800095FAA5F1B1FA81F108EB8101C1F880A4D2
:100A9000FFF7FAFC814605E0FFF7F6FCA0EB090042
:100AA000022899D897FAA7F0B0FA80F040F06000D9
:100AB000B5EB501F01D130680BE097FAA7F0B0FA00
:100AC00080F040F06000B7EB501F01D1306A00E0C9
:100AD000706A97FAA7F1B1FA81F101F01F0105FAE6
:100AE00001F21042D8D12078400763D5F06940F078
:100AF0008050F061F069DFF8F0B000F080500090B5
:100B0000DBF8001041F48071CBF80010FFF7BCFC5B
:100B1000814605E0FFF7B8FCA0EB0900642872D815
:100B2000DBF80000C005F5D5E06801280AD008B15F
:100B3000052813D0306A20F001003062306A20F0BE
:100B4000040002E0306A40F001003062E06841F2E7
:100B5000883B80B3FFF798FC81460AE0306A40F09A
:100B600004003062EEE7FFF78FFCA0EB0901594566
:100B700049D897FAA7F0B0FA80F040F04000B5EB02
:100B8000501F01D130680BE097FAA7F0B0FA80F05F
:100B900040F04000B7EB501F01D1306A00E0706AAE
:100BA00097FAA7F1B1FA81F101F01F0205FA02F1FB
:100BB0000842D8D033E0FFE7FFF766FC814605E046
:100BC000FFF762FCA0EB090159451CD897FAA7F082
:100BD000B0FA80F040F04000B5EB501F08D105E0BE
:100BE00000100240000042420070004030680CE0FB
:100BF00097FAA7F0B0FA80F040F04000B7EB501F32
:100C000002D1306A01E08AE0706A97FAA7F1B1FA7E
:100C100081F101F01F0205FA02F10842D0D1E0692A
:100C200098B37168C1F38101022972D002284FF094
:100C300080714FF0007B50460AD091FAA1F1B1FAD1
:100C400081F148F82100FFF71FFC04465F4669E088
:100C50008A4691FAA1F1B1FA81F1C14648F8210022
:100C6000FFF712FCA84607465D4604E0FFF70CFCC0
:100C7000C01B022853D895FAA5F0B0FA80F040F0D6
:100C80002000400902D0306801E060E0706A95FA07
:100C9000A5F1B1FA81F101F01F0208FA02F1084250
:100CA000E4D1206AB0F5803F05D17068A16820F4D6
:100CB000003008437060D4E908010843716821F4EA
:100CC0007411084370609AFAAAF0B0FA80F04746AF
:100CD00049F82080FFF7D8FB044604E0FFF7D4FB77
:100CE000001B02281BD895FAA5F0B0FA80F040F05E
:100CF0002000400901D0306800E0706A95FAA5F143
:100D0000B1FA81F101F01F0107FA01F10842E5D0C3
:100D10001DE01EE0FFF7B8FB001B022802D90320EC
:100D2000BDE8F88F97FAA7F0B0FA80F040F0200005
:100D3000400901D0306800E0706A97FAA7F1B1FA73
:100D400081F101F01F0105FA01F10842E2D1002012
:100D5000E6E70120E4E74FF0E0210428086903D02A
:100D600020F004000861704740F00400FAE710B575
:100D7000401EB0F1807F01D3012010BD4FF0E02470
:100D800060610F21601700F0DFFA0020A0610720EA
:100D90002061002010BD70477047704770B5044651
:100DA000006801694FF00005C943890715D4C1687F
:100DB000C943890711D4E91E01610120207620680A
:100DC00080698007204602D0FFF7E7FF04E000F0CB
:100DD00098F8204600F046F9257620680169C94355
:100DE000490717D4C168C943490713D46FF00401F8
:100DF0000161022020762068806910F4407F20463F
:100E000002D0FFF7CAFF04E000F07BF8204600F0B4
:100E100029F9257620680169C943090716D4C168F4
:100E2000C943090712D46FF008010161042020763C
:100E30002068C0698007204602D0FFF7AEFF04E0BB
:100E400000F05FF8204600F00DF925762068016972
:100E5000C943C90617D4C168C943C90613D46FF082
:100E600010010161082020762068C06910F4407FDD
:100E7000204602D0FFF791FF04E000F042F8204640
:100E800000F0F0F8257620680169C943C90708D148
:100E9000C168C943C90704D1891E0161204600F019
:100EA000FFF820680169C943090609D4C168C9432C
:100EB000090605D46FF0800101612046FFF76BFF42
:100EC00020680169C943490609D4C168C943490674
:100ED00005D46FF040010161204600F0F3F820686E
:100EE0000169C94389060BD4C168C943890607D47F
:100EF0006FF0200101612046BDE87040FFF74CBF54
:100F000070BD704770B5044690F838000D46012852
:100F10000DD0012684F83860022084F8390042B1EF
:100F2000042A18D0082A2AD00C2A4DD139E00220F0
:100F300070BD206800F038FB2068816941F008012D
:100F400081612068816921F00401816120688169E3
:100F50002A69114311E0206800F056FB206881697E
:100F600041F4006181612068816921F480618161BF
:100F7000206881692A6941EA0221816124E02068B0
:100F800000F078FB2068C16941F00801C161206868
:100F9000C16921F00401C1612068C1692A69114356
:100FA00011E0206800F09AFB2068C16941F40061FB
:100FB000C1612068C16921F48061C1612068C16993
:100FC0002A6941EA0221C16184F83960002084F86D
:100FD000380070BD10B5040003D094F8390010B18A
:100FE00007E0012010BD002084F83800204600F002
:100FF0000DF8022084F83900211D206800F086FADF
:10100000012084F83900002010BD000000B5006800
:10101000114985B088421DD11048C16941F00401D1
:10102000C161C16901F004010491816941F00801C5
:1010300081618069694600F0080004904FF40070F7
:1010400000900220019001200290032003900448A8
:10105000FFF71EF905B000BD000800400010024077
:10106000000C01407047000010B5044600680122E2
:1010700000F08EFA08482168814202D00748814278
:1010800003D1486C40F4004048642068016841F096
:1010900001010160002010BD002C0140003401401E
:1010A0000649884206D10649D1F8940118B10020BA
:1010B000C1F8940170470120FAE7000054000020B5
:1010C000000023427047704738B504460068016845
:1010D000C268C1F3000102F4807221B11AB1E16B60
:1010E00041F00101E1630168C1F34002416901F08F
:1010F000010122B119B1E26B42F00402E26302681D
:10110000C2F3800222B119B1E26B42F00202E26343
:101110000268C2F3C00222B119B1E16B41F00801CB
:10112000E1630168C068C1F3401100F0200019B10B
:1011300010B1204600F000FB20680168C068C1F3D0
:10114000C01100F0800019B110B1204600F000FC81
:1011500021680868CA68C0F3801002F040020125C7
:1011600068B162B1CA68204622F04002CA6094F8B1
:101170003910322910D080F8395000F0BCF8E06BFB
:10118000002808D0206801684068009084F8395031
:101190002046FFF798FF38BD222180F83910ECE790
:1011A00070B5040004D094F83900002510B106E0B1
:1011B000012070BD84F83850204600F021F802204C
:1011C00084F839002068C16821F40051C1602046CC
:1011D00000F006FB2068016921F49041016120685C
:1011E000416921F02A0141612068C16841F4005140
:1011F000C160E563012084F83900002070BD000063
:1012000010B500681E4986B0884236D11D488169F4
:1012100041F004018161816901F004010491816957
:1012200041F480418161816901F4804104918169C7
:1012300041F0010181618069134C00F001000490CC
:101240004FF40070009002200190012002900320D2
:10125000039069462046FFF71BF8211500910021F5
:10126000019169462046FFF713F82520FFF73EF964
:10127000002211462520FFF745F906B010BD0000F9
:1012800000380140001002400008014090F8393059
:10129000012B01D0122B2BD131B32AB390F8383067
:1012A000012B25D0012380F8383081628285C285E8
:1012B0000021C16390F83920122A17D0222280F829
:1012C000392080F838100168CA6842F48072CA6018
:1012D00001684A6942F001024A610068C16841F050
:1012E0002001C16000207047012070473222E6E7EC
:1012F0000220704770477047FEE7000030B50F4886
:1013000085B0816941F01001816180694FF400541A
:1013100000F0100004900120CDE90040029003206D
:10132000074D039069462846FEF7B2FF0122214689
:101330002846FFF7A3F805B030BD000000100240BA
:1013400000100140FEE770470907090E002806DA81
:1013500000F00F0000F1E02080F8141D704700F14C
:10136000E02080F80014704770470000F0B52C4A68
:101370002A4B002411781E780D18EDB2072E0CD2DE
:10138000DFE806F0040C151E23344600B52803D10F
:1013900001201870B53108E05470F0BD5B2801D011
:1013A0001C70F9E7022018705B311170F0BD012844
:1013B00001D01C702AE003241C705870491CF4E70B
:1013C0009870042018701570F0BD51785C18491C95
:1013D000E070124CC9B218340C445170E0701570B2
:1013E00098788842F0D105201870F0BDFF25B1FB38
:1013F000F5F605FB1611814205D10948D978801C04
:101400000180197941800620187004E01470F0BD45
:10141000BB28FCD11C705470F8E70000AC00002021
:101420000E000020704730B58FB0012100910225D9
:10143000090400240795CDE90114CDE90810684698
:10144000FFF7CCF900B1FEE70F20CDE90A054FF414
:101450008060CDE90C4002210AA80E94FFF784F8C1
:10146000002800D0FEE70FB030BDFFF713B8000032
:101470000D48016841F00101016041680B4A1140CB
:10148000416001680A4A11400160016821F480212D
:101490000160416821F4FE0141604FF41F01816049
:1014A0000449C00308607047001002400000FFF8C4
:1014B000FFFFF6FE08ED00E00148FFF76FBC0000FB
:1014C0005400002010B5104A04460E48C2E900013D
:1014D0000020C2E9020410611046FFF77BFD0A49B3
:1014E00060203C310C22086060084860022088605F
:1014F0000548FFF707FDBDE810400C210248FFF743
:10150000B3BD00000008004054000020F0B50268A0
:101510001A4D1B4E1B4FDFF870C01C4B4FF0804E16
:10152000A84209D0984207D0704505D0B04203D0F8
:10153000B84201D0604503D122F070044A682243CA
:10154000A84209D0984207D0704505D0B04203D0D8
:10155000B84201D0604503D122F44074CA682243E6
:1015600002608A68C2620A688262A84201D0984218
:1015700001D10969016301214161F0BD002C0140E5
:101580000004004000080040000C0040003401400E
:1015900010B50123046A8B409C430462036A8A40AD
:1015A0001343036210BD0000F0B5026A22F001028D
:1015B0000262026A43688469114E24F073050C6864
:1015C000104F2C4322F002058A682A43B04201D012
:1015D000B84205D122F00805CA682A4322F0040265
:1015E000B04201D0B84205D14D6923F440731D4388
:1015F0008B692B4343608461496841630262F0BD9B
:10160000002C014000340140F0B5026A22F01002C3
:101610000262026A436884690D6824F4E64444EA7D
:1016200005248D6822F0200242EA05120F4D104E6B
:10163000A84201D0B04206D1CF6822F0800242EA2F
:10164000071222F04002A84201D0B04207D14D69F2
:1016500023F4406343EA85038D6943EA85034360CD
:101660008461496881630262F0BD0000002C014082
:1016700000340140F0B5026A22F480720262026A0C
:101680004368C46922F4007224F073050C68124E9A
:101690002C438D6842EA05220E4DA84201D0B0428B
:1016A00006D1CF6822F4006242EA072222F4806267
:1016B000A84201D0B04207D14D6923F4405343EA18
:1016C00005138D6943EA05134360C4614968C1632A
:1016D0000262F0BD002C01400034014030B5026AC6
:1016E00022F480520262036A4268C4690D6824F4DD
:1016F000E64444EA05248D6823F4005343EA0533A5
:10170000084DA84202D0084DA84204D14D6922F4E8
:10171000804242EA85124260C46149680164036202
:1017200030BD0000002C0140003401400149086038
:10173000704700004008004010B590F83910222989
:1017400003D0322901D0022010BD8168B1F5805F3D
:1017500011D00169002901681FD0496801F07F0399
:10176000816A4A1C82620B70C18D491E0904090CF2
:10177000C18518D02FE00269816A002A0268526888
:1017800005D0D2B20A80816A491C8162ECE7C2F3BB
:1017900008020A80816A891CF7E74A68816A4B1C43
:1017A00083620A70E0E70168CA6822F02002CA601A
:1017B00090F83910322910D00168CA6822F480727A
:1017C000CA6001684A6922F001024A61012180F879
:1017D0003910FFF78FFD002010BD1221F7E7000040
:1017E0002DE9F041044600680169E26821F44051A6
:1017F00011430161A16820690143606901432068C8
:10180000C26841F20C639A430A43C260206841698E
:10181000A26921F44071114341614C49206864265A
:10182000322788423CD1FEF77DFF00EBC00101EB7F
:10183000001061688900B0FBF1F5FEF773FF00EB63
:10184000C00101EB00106168B8468900B0FBF1F0FF
:10185000B0FBF6F06FF01801484305EB800107EB91
:101860000110B0FBF6F000F0F005FEF75BFF00EBB7
:10187000C00101EB001061688900B0FBF1F0B0FB22
:10188000F6F005EB0015FEF74DFF00EBC00101EB94
:10189000001061688900B0FBF1F7FEF743FF3BE001
:1018A000FEF728FF00EBC00101EB00106168890022
:1018B000B0FBF1F5FEF71EFF00EBC00101EB0010DD
:1018C0006168B8468900B0FBF1F0B0FBF6F06FF04C
:1018D0001801484305EB800107EB0110B0FBF6F05F
:1018E00000F0F005FEF706FF00EBC00101EB001071
:1018F00061688900B0FBF1F0B0FBF6F005EB001574
:10190000FEF7F8FE00EBC00101EB001061688900F2
:10191000B0FBF1F7FEF7EEFE00EBC00101EB0010AB
:1019200061688900B0FBF1F0B0FBF6F06FF01801D0
:10193000484307EB800108EB0110B0FBF6F021688B
:1019400000F00F0028448860BDE8F08100380140B5
:1019500090F83910122903D0322901D002207047A3
:101960008168B1F5805F016A0BD04A1C026202688F
:1019700009785160C18C491E0904090CC1840ED03C
:1019800017E009880268C1F3080151600169002964
:10199000016A02D0491C0162ECE7891CFBE701687F
:1019A000CA6822F08002CA600068C16841F0400144
:1019B000C16000207047000010B50A48FFF784FBA3
:1019C000012209490748FFF761FC28B100224FF4C2
:1019D00000510648FEF752FD03480078BDE810406C
:1019E000FFF7C4BC140000200C00002000100140D0
:1019F000FEE7704710B504460420FFF7ACF9014834
:101A0000046010BD0800002070B5054600244FF4A6
:101A10007A7603E0304600F005F8641CAC42F9D356
:101A200070BD000070B54FF0E02500216C69094AD7
:101A3000AB6912685043AA699A42FCD002D2A3EB68
:101A4000020302E0A4EB0206334419441346814228
:101A5000F1D370BD080000200024FEF723FD4FF4F1
:101A6000E010FFF7E0FC4820FFF7C4FF4FF4E1303F
:101A700000F01CF8FFF742FC41F61F41C720FFF7BA
:101A800021FD094D0A20FFF7BFFFB5F9001001291C
:101A900002D0022902D002E0AF2400E0C324204695
:101AA000FFF744FEEEE70000100000200B4910B5E0
:101AB000094AC1E9002000208860C8600861886187
:101AC0000C2048610846FFF76BFBBDE8104001227F
:101AD00003490248FFF7DABB003801401400002038
:101AE0000C000020000000000000000001020304C0
:101AF0000607080900000000010203041C1B00087F
:101B000000000020140000006C010008301B0008D9
:101B100014000020240700008801000800A24A04E5
:101B200000000000000000000000000000000000B5
:0400000508000131BD
:00000001FF
